:020000040800F2
:1000000000A00020490B0008E9280008EB280008A0
:10001000ED280008EF280008F12800080000000083
:10002000000000000000000000000000F3280008AD
:10003000F528000800000000F7280008F92800084B
:10004000990B0008990B0008990B0008990B000800
:10005000990B0008990B0008990B0008990B0008F0
:10006000990B0008990B0008990B0008012900085A
:10007000990B0008990B0008990B0008990B0008D0
:10008000990B0008990B00081129000800000000D6
:10009000000000000000000000000000990B0008B4
:1000A000990B0008990B0008990B0008990B0008A0
:1000B000990B00080000000000000000990B0008E8
:1000C000990B0008990B0008990B0008990B000880
:1000D000990B0008990B0008990B0008990B000870
:1000E000990B0008990B00080000000000000000B8
:1000F0000000000000000000000000000000000000
:1001000000000000000000000000000000000000EF
:100110000000000000000000990B00080000000033
:10012000990B0008990B0008990B0008990B00081F
:10013000990B000800000000000000000000000013
:10014000990B0008990B0008990B0008990B0008FF
:10015000990B0008990B0008990B0008990B0008EF
:10016000990B0008990B0008000000000000000037
:1001700000000000990B00080000000000000000D3
:10018000990B0008990B0008990B0008000000006B
:1001900010B5054C237833B9044B13B10448AFF3C1
:1001A00000800123237010BD8002002000000000A9
:1001B000A463000808B5034B1BB103490348AFF320
:1001C000008008BD0000000084020020A463000835
:1001D00081F0004102E000BF83F0004330B54FEAF8
:1001E00041044FEA430594EA050F08BF90EA020F65
:1001F0001FBF54EA000C55EA020C7FEA645C7FEAF8
:10020000655C00F0E2804FEA5454D4EB5555B8BF1A
:100210006D420CDD2C4480EA020281EA030382EA8B
:10022000000083EA010180EA020281EA0303362D1D
:1002300088BF30BD11F0004F4FEA01314FF4801CF0
:100240004CEA113102D0404261EB410113F0004F02
:100250004FEA03334CEA133302D0524263EB4303B9
:1002600094EA050F00F0A780A4F10104D5F1200E57
:100270000DDB02FA0EFC22FA05F2801841F10001B2
:1002800003FA0EF2801843FA05F359410EE0A5F186
:1002900020050EF1200E012A03FA0EFC28BF4CF0B7
:1002A000020C43FA05F3C01851EBE37101F000456D
:1002B00007D54FF0000EDCF1000C7EEB00006EEB7A
:1002C0000101B1F5801F1BD3B1F5001F0CD3490804
:1002D0005FEA30004FEA3C0C04F101044FEA44525B
:1002E00012F5800F80F09A80BCF1004F08BF5FEAE2
:1002F000500C50F1000041EB045141EA050130BDC2
:100300005FEA4C0C404141EB010111F4801FA4F164
:100310000104E9D191F0000F04BF01460020B1FAB9
:1003200081F308BF2033A3F10B03B3F120020CDAF1
:100330000C3208DD02F1140CC2F10C0201FA0CF0CF
:1003400021FA02F10CE002F11402D8BFC2F1200C34
:1003500001FA02F120FA0CFCDCBF41EA0C019040EA
:10036000E41AA2BF01EB0451294330BD6FEA040433
:100370001F3C1CDA0C340EDC04F11404C4F120021E
:1003800020FA04F001FA02F340EA030021FA04F330
:1003900045EA030130BDC4F10C04C4F1200220FA87
:1003A00002F001FA04F340EA0300294630BD21FAC5
:1003B00004F0294630BD94F0000F83F4801306BF8B
:1003C00081F480110134013D4EE77FEA645C18BF7F
:1003D0007FEA655C29D094EA050F08BF90EA020F16
:1003E00005D054EA000C04BF1946104630BD91EA0E
:1003F000030F1EBF0021002030BD5FEA545C05D111
:100400004000494128BF41F0004130BD14F580044F
:100410003CBF01F5801130BD01F0004545F0FE41C3
:1004200041F470014FF0000030BD7FEA645C1ABFF8
:10043000194610467FEA655C1CBF0B46024650EA2F
:10044000013406BF52EA033591EA030F41F400215B
:1004500030BD00BF90F0000F04BF0021704730B5E1
:100460004FF4806404F132044FF000054FF00001B6
:1004700050E700BF90F0000F04BF0021704730B577
:100480004FF4806404F1320410F0004548BF40424C
:100490004FF000013EE700BF42004FEAE2014FEAA1
:1004A00031014FEA02701FBF12F07F4393F07F4F7C
:1004B00081F06051704732F07F4208BF704793F07F
:1004C0007F4F04BF41F40021704730B54FF4607492
:1004D00001F0004521F000411CE700BF50EA010295
:1004E00008BF704730B54FF000050AE050EA01023E
:1004F00008BF704730B511F0004502D5404261EBAE
:1005000041014FF4806404F132045FEA915C3FF4EE
:10051000D8AE4FF003025FEADC0C18BF03325FEA8B
:10052000DC0C18BF033202EBDC02C2F1200300FA3C
:1005300003FC20FA02F001FA03FE40EA0E0021FA61
:1005400002F11444BDE600BF70B54FF0FF0C4CF44F
:10055000E06C1CEA11541DBF1CEA135594EA0C0F01
:1005600095EA0C0F00F0DEF82C4481EA030621EA3C
:100570004C5123EA4C5350EA013518BF52EA033577
:1005800041F4801143F4801338D0A0FB02CE4FF029
:100590000005E1FB02E506F00042E0FB03E54FF059
:1005A0000006E1FB03569CF0000F18BF4EF0010E51
:1005B000A4F1FF04B6F5007F64F5407404D25FEA4D
:1005C0004E0E6D4146EB060642EAC62141EA555100
:1005D0004FEAC52040EA5E504FEACE2EB4F1FD0C42
:1005E00088BFBCF5E06F1ED8BEF1004F08BF5FEAC0
:1005F000500E50F1000041EB045170BD06F0004672
:1006000046EA010140EA020081EA0301B4EB5C041E
:10061000C2BFD4EB0C0541EA045170BD41F4801116
:100620004FF0000E013C00F3AB8014F1360FDEBF3B
:10063000002001F0004170BDC4F10004203C35DA17
:100640000C341BDC04F11404C4F1200500FA05F39A
:1006500020FA04F001FA05F240EA020001F000423B
:1006600021F0004110EBD37021FA04F642EB0601B1
:100670005EEA430E08BF20EAD37070BDC4F10C04DB
:10068000C4F1200500FA04F320FA05F001FA04F29F
:1006900040EA020001F0004110EBD37041F100018B
:1006A0005EEA430E08BF20EAD37070BDC4F1200596
:1006B00000FA05F24EEA020E20FA04F301FA05F2FE
:1006C00043EA020321FA04F001F0004121FA04F2A6
:1006D00020EA020000EBD3705EEA430E08BF20EA76
:1006E000D37070BD94F0000F0FD101F000464000B0
:1006F00041EB010111F4801F08BF013CF7D041EA32
:10070000060195F0000F18BF704703F00046520035
:1007100043EB030313F4801F08BF013DF7D043EA06
:100720000603704794EA0C0F0CEA135518BF95EABC
:100730000C0F0CD050EA410618BF52EA4306D1D143
:1007400081EA030101F000414FF0000070BD50EA62
:10075000410606BF1046194652EA430619D094EAEC
:100760000C0F02D150EA013613D195EA0C0F05D1D6
:1007700052EA03361CBF104619460AD181EA03012A
:1007800001F0004141F0FE4141F470014FF00000E2
:1007900070BD41F0FE4141F4780170BD70B54FF07D
:1007A000FF0C4CF4E06C1CEA11541DBF1CEA1355FD
:1007B00094EA0C0F95EA0C0F00F0A7F8A4EB0504DF
:1007C00081EA030E52EA03354FEA013100F08880D6
:1007D0004FEA03334FF0805545EA131343EA12639F
:1007E0004FEA022245EA111545EA10654FEA002654
:1007F0000EF000419D4208BF964244F1FD0404F50D
:10080000407402D25B084FEA3202B61A65EB030568
:100810005B084FEA32024FF480104FF4002CB6EB25
:10082000020E75EB030E22BFB61A754640EA0C00A5
:100830005B084FEA3202B6EB020E75EB030E22BFE5
:10084000B61A754640EA5C005B084FEA3202B6EB26
:10085000020E75EB030E22BFB61A754640EA9C00E5
:100860005B084FEA3202B6EB020E75EB030E22BFB5
:10087000B61A754640EADC0055EA060E18D04FEA73
:10088000051545EA16754FEA06164FEAC30343EA13
:1008900052734FEAC2025FEA1C1CC0D111F4801FE0
:1008A0000BD141EA00014FF000004FF0004CB6E7D9
:1008B00011F4801F04BF01430020B4F1FD0C88BF78
:1008C000BCF5E06F3FF6AFAEB5EB030C04BFB6EB83
:1008D000020C5FEA500C50F1000041EB045170BD76
:1008E0000EF0004E4EEA113114EB5C04C2BFD4EBA3
:1008F0000C0541EA045170BD41F480114FF0000E27
:10090000013C90E645EA060E8DE60CEA135594EAA2
:100910000C0F08BF95EA0C0F3FF43BAF94EA0C0FA5
:100920000AD150EA01347FF434AF95EA0C0F7FF41A
:1009300025AF104619462CE795EA0C0F06D152EA6E
:1009400003353FF4FDAE1046194622E750EA410652
:1009500018BF52EA43067FF4C5AE50EA41047FF463
:100960000DAF52EA43057FF4EBAE12E74FF0FF3CC8
:1009700006E000BF4FF0010C02E000BF4FF0010C99
:100980004DF804CD4FEA410C7FEA6C5C4FEA430C12
:1009900018BF7FEA6C5C1BD001B050EA410C0CBF61
:1009A00052EA430C91EA030F02BF90EA020F0020C3
:1009B000704710F1000F91EA030F58BF994208BF2A
:1009C00090422CBFD8176FEAE37040F001007047E7
:1009D0004FEA410C7FEA6C5C02D150EA013C07D13E
:1009E0004FEA430C7FEA6C5CD6D152EA033CD3D089
:1009F0005DF8040B704700BF8446104662468C4683
:100A00001946634600E000BF01B5FFF7B7FF0028B5
:100A100048BF10F1000F01BD4DF808EDFFF7F4FFDE
:100A20000CBF012000205DF808FB00BF4DF808ED69
:100A3000FFF7EAFF34BF012000205DF808FB00BF8C
:100A40004DF808EDFFF7E0FF94BF012000205DF8AE
:100A500008FB00BF4DF808EDFFF7CEFF94BF012063
:100A600000205DF808FB00BF4DF808EDFFF7C4FF5C
:100A700034BF012000205DF808FB00BF4FEA410CA5
:100A80007FEA6C5C02D150EA013C0AD14FEA430C88
:100A90007FEA6C5C02D152EA033C02D14FF00000C5
:100AA00070474FF0010070474FEA4102B2F1E04356
:100AB00024BFB3F5001CDCF1FE5C0DD901F0004C45
:100AC0004FEAC0024CEA5070B2F1004F40EB830095
:100AD00008BF20F00100704711F0804F21D113F1C1
:100AE0003872BCBF01F00040704741F480114FEAFA
:100AF0005252C2F11802C2F1200C10FA0CF320FA83
:100B000002F018BF40F001004FEAC1234FEAD3239F
:100B100003FA0CFC40EA0C0023FA02F34FEA430309
:100B2000CCE77FEA625307D150EA01331EBF4FF092
:100B3000FE4040F44000704701F0004040F0FE40AD
:100B400040F40000704700BFDFF834D0002103E01C
:100B50000C4B5B58435004310B480C4B42189A42E3
:100B6000F6D30B4A02E0002342F8043B094B9A42B9
:100B7000F9D301F0D5FE05F075FB01F06FF9FEE742
:100B800000A000204864000800000020800200202F
:100B900080020020B80A0020FEE7000008B50346E6
:100BA0000B4A126842B10A4A106803446A469342EB
:100BB00006D8074A136008BD054A06491160F2E7E6
:100BC00005F04AFB0C2303604FF0FF30F3E700BF52
:100BD0009C020020B80A002000B58BB000230793C8
:100BE0000893099301930293039304930593069347
:100BF0002C482D4A02604FF4403242608360C3604B
:100C00000122026108214161037642760322C2611A
:100C100080F820308362C36280F83030436380F80C
:100C2000383001F0FDFE00282DD10AA9002341F83B
:100C30000C3D1C4802F0AEFC40BB1C4B019306234C
:100C40000293022303937F23049304230593002339
:100C5000069301A9134802F08BF9D0B9144B019304
:100C60000C23029301A90F4802F082F9A0B9114B9D
:100C700001931223029301A90A4802F079F970B98D
:100C80000BB05DF804FB01F037F9CEE701F034F961
:100C9000D3E701F031F9E1E701F02EF9E7E701F0E0
:100CA0002BF9EDE710040020000004500001802122
:100CB0000002B0250004002A10B588B00023039379
:100CC00004930593069307930268244B9A4201D03C
:100CD00008B010BD044603F17043A3F5F833DA6C95
:100CE00042F40052DA64DA6C02F400520192019A82
:100CF000DA6C42F00102DA64DB6C03F00103029368
:100D0000029B382303930B23049303A94FF09040D5
:100D100002F06CFE1248134B0360002343608360B3
:100D2000C360802202614FF4007242614FF400629E
:100D300082612022C261036202F03EFD58B9084B75
:100D4000E3649C6200221146122002F0C5FC1220CE
:100D500002F0F6FCBCE701F0CFF8F0E70000045029
:100D6000740400200800024000B583B00A4B9A6C5E
:100D700042F001029A649B6C03F001030193019B12
:100D8000002211460B2002F0A7FC0B2002F0D8FC39
:100D900003B05DF804FB00BF0010024041600B6827
:100DA0000360704738B50546082005F07FFA044611
:100DB0002946FFF7F3FF204638BD38B5054644689D
:100DC00000E010342368002B0DDB2A689A42F8D12A
:100DD0006368284698470028F3D0A3682B60E3682F
:100DE0000BB12846984738BD70B588B000240394ED
:100DF00004940594069407941F4BDA6C42F00402A5
:100E0000DA64DA6C02F004020092009ADA6C42F0C2
:100E10000102DA64DA6C02F001020192019ADA6CE2
:100E200042F00202DA64DB6C03F002030293029BDD
:100E3000124E22462321304602F09CFE22464FF4F9
:100E400080714FF0904002F095FE2323039301251B
:100E500004950594069403A9304602F0C7FD4FF4AB
:100E60008073039304950594069403A94FF0904072
:100E700002F0BCFD08B070BD001002400004004844
:100E800008B51348134B036040F614634360002316
:100E900083600122C260036143618361C3610362B5
:100EA00002F0B0FF50B90021094803F03DFA40B903
:100EB0000021074803F066FA30B908BD01F01CF8BC
:100EC000F1E701F019F8F3E701F016F8F5E700BFD4
:100ED000080500200054004008B51348134B036078
:100EE00040F614634360002383600122C260036103
:100EF00043618361C361036202F084FF50B9002142
:100F0000094803F011FA40B90021074803F03AFA02
:100F100030B908BD00F0F0FFF1E700F0EDFFF3E7B6
:100F200000F0EAFFF5E700BFBC040020005C0040D1
:100F30002DE9F0418AB000230593069307930893A7
:100F400009930368324A934205D0324A934226D02D
:100F50000AB0BDE8F081304CE36C43F00103E36478
:100F6000E36C03F001030093009B4FF4C06305930F
:100F70001223069301230793032308930423099361
:100F800005A94FF0904002F031FDA36D43F400132A
:100F9000A365A36D03F400130193019BD8E71E4CD6
:100FA000E36C43F00103E364E36C03F00103029399
:100FB000029BE36C43F00203E364E36C03F002037F
:100FC0000393039B802305934FF01208CDF81880FC
:100FD00001270797032608960425099505A94FF0D0
:100FE000904002F003FD10230593CDF81880079779
:100FF0000896099505A9094802F0F8FCA36D43F489
:101000000003A365A36D03F400030493049B9FE70F
:1010100000540040005C0040001002400004004802
:10102000034B1B680BB9012070470020704700BFBD
:10103000A4020020034B1B680BB101207047002065
:10104000704700BFA402002001207047000000008C
:1010500008B51B4B186807EE900AF8EE677A17EE92
:10106000900AFFF719FA0022164BFFF76DFA0246B5
:101070000B46FFF7B3F80EA3D3E90023FFF764FA9A
:10108000FFF712FDFFF708FA0BA3D3E90023FFF7E0
:10109000A3F800220C4BFFF757FAFFF705FD0B4BA7
:1010A00018600B4A136803F5EA433033136008BD38
:1010B0006666666666660A409A99999999990940A2
:1010C000B80700200000303F00005940A80500206C
:1010D000A402002002230EE0134A32F9132007EE87
:1010E000902AF8EEE77A114A92ED007A77EE877A45
:1010F000C2ED007A01330E4A12799A42ECDC023AD0
:101100000A4B07EE902AF8EEE77AD3ED006A86EEF6
:10111000A77A83ED007A064A00231371136803F55A
:10112000EA43303313607047B005002054050020B7
:10113000A402002002239FED1E7A09E01D4A32F925
:10114000132007EE902AF8EEE77A37EE277A01337C
:10115000194A12799A42F1DC931E06EE103AB8EE63
:10116000C66AC7EE066A02239FED117A0DE01149A7
:1011700031F9131007EE901AF8EEE77A77EEE67A77
:10118000F0EEE77A37EE277A01339A42EFDCC7EECA
:10119000065AF2EE0E7AF4EEE75AF1EE10FA03D99F
:1011A000064B00221A607047044BC3ED006A70477B
:1011B00000000000B0050020A4020020540500201B
:1011C0000F4BD3ED007AB2EE0E7AF4EEC77AF1EE61
:1011D00010FA94BF01220022F5EEC07AF1EE10FA67
:1011E00002F00102D8BF0022064B5B79B3FA83F309
:1011F0005B0912B10BB1012070470020704700BF9E
:10120000A8050020A4020020254BD3ED007A9FED15
:10121000257AF4EEC77AF1EE10FA94BF0123002389
:10122000F5EEC07AF1EE10FA03F00103D8BF002307
:1012300023BB9FED1D7AF4EEC77AF1EE10FA26DAA1
:101240001A4BD3ED007A9FED1A7AF4EEC77AF1EEDD
:1012500010FA94BF01230023F5EEC07AF1EE10FAE4
:1012600003F00103D8BF00239BB99FED0E7AF4EE83
:10127000C77AF1EE10FA0EDB012300E001230D4ADC
:101280009279002A18BF00233BB101207047012347
:10129000F5E70123F3E70023F1E70020704700BFE3
:1012A000AC0500200000B44200000C43640700209D
:1012B00000007042A402002008B5194BD3ED007A5B
:1012C0009FED187AF4EEC77AF1EE10FA94BF01237D
:1012D0000023F5EEC07AF1EE10FA03F00103D8BF57
:1012E00000235BB917EE900AFFF7D6F80AA3D3E9FB
:1012F0000023FFF7AFFB50B1012300E001230A4AAE
:10130000D279002A18BF00231BB1012008BD002399
:10131000F5E70020FAE700BF9A9999999999424018
:10132000DC05002000000C42A4020020154BD3ED88
:10133000007A9FED157AF4EEC77AF1EE10FA94BFB9
:1013400001230023F5EEC07AF1EE10FA03F0010359
:10135000D8BF002343B99FED0D7AF4EEC77AF1EEC2
:1013600010FA0ADB012300E00123094A127A002A5D
:1013700018BF00231BB1012070470023F5E70020B0
:10138000704700BF54050020000070420000C842B2
:10139000A40200200A4B1A680A4B597A40F6D94336
:1013A0009A428CBF00230123002918BF002300327A
:1013B00018BF012213B10AB1012070470020704705
:1013C00020080020A402002008B5094B1868FFF788
:1013D00063F805A3D3E90023FFF73CFB00B101202C
:1013E00008BD00BFAFF300808FC2F5285C9F60404E
:1013F000D805002008B500224FF480714FF09040CE
:1014000002F0B8FB08BD000008B501F0EFFA044B8C
:101410001B68984201D3012008BD0020FCE700BFF3
:10142000A402002008B501F0E1FA044B1B689842C1
:1014300001D2012008BD0020FCE700BFA40200206B
:1014400008B501F0D3FA00F5FA60024BD86001222A
:101450005A7108BDA402002008B501F0C7FA00F5D2
:10146000FA50024BD86001229A7108BDA4020020F4
:1014700008B501F0BBFA00F57A60024BD860012292
:10148000DA7108BDA402002008B501F0AFFA00F53A
:10149000BB501030024BD86001225A7208BD00BF09
:1014A000A402002008B501F0A1FA00F6B830014B03
:1014B000D86008BDA402002008B501F097FA044BDB
:1014C000DB68984201D3012008BD0020FCE700BF83
:1014D000A402002008B501F089FA044BDB689842A9
:1014E00001D2012008BD0020FCE700BFA4020020BB
:1014F00010B5074C03222146064801F0C1FFA3881E
:10150000054A128A9A4201D2034A138210BD00BFD3
:10151000B807002010040020A402002010B5084CD9
:1015200003222146074801F0ABFFA268064B1A6070
:10153000064A136803F51C531033136010BD00BF37
:10154000B80700201004002020080020A40200207A
:1015500030B583B001F098F908B903B030BD00F0A0
:10156000B1FE0128F9D101F041FA1F4C6369C51A97
:1015700001F03CFA60612846FEF77CFF00221B4B1D
:10158000FFF70CF902460B4600201949FFF706F950
:10159000FFF78AFA07EE900A9FED167AF4EEC77A03
:1015A000F1EE10FA4CBF012200229FED137AF4EE07
:1015B000C77AF1EE10FA02F00102D8BF00222379B7
:1015C000132B8CBF00210121002AC6D00029C4D0D2
:1015D000FCEEE77ACDED017A9DF80420074921F869
:1015E000132001332371B8E7A402002000408F408C
:1015F00000004E4000007F4300002042B005002064
:101600002DE9F84F2DED028B002401E00134E4B206
:10161000632C00F29B800A2001F0EEF901F034F90E
:101620000028F3D0564900F0B3FC0128EED1544A0B
:10163000516813685348057EA1EB030A524B43F8E7
:1016400025A09068401A514B43F8250007EE900AF8
:10165000F8EE677A17EE900AFEF71EFF06460F4671
:101660003DA3D3E90023FEF76FFF0022484BFFF7AD
:1016700095F83BA3D3E90023FEF7B0FD80468946E9
:1016800007EE90AAF8EE677A17EE900AFEF704FFCD
:1016900082468B4634A3D3E90023FEF755FF002290
:1016A0003B4BFFF77BF802460B4640464946FEF7A8
:1016B00095FDFFF7F9F908EE100A4FEA8508354B5A
:1016C000434418602AA3D3E9002330463946FEF785
:1016D0003BFF00222E4BFFF761F800222C4BFEF758
:1016E0007BFD06460F4624A3D3E900235046594606
:1016F000FEF72AFF0022264BFFF750F802460B4662
:1017000030463946FEF76AFDFFF7CEF907EE900A3C
:10171000214B9844C8F800009FED207AB4EEC78AA8
:10172000F1EE10FACCBF012300239FED1D7AF4EEF9
:10173000C77AF1EE10FA03F00103D8BF0023002BA3
:101740003FF464AF01350F4B1D765FE7BDEC028BB4
:10175000BDE8F88FAFF30080F6285C8FC2F5E83F54
:10176000AE47E17A14AE294091ED7C3F355E0240F0
:101770002FDD24068195F33F4A0C022B8716E13FAB
:1017800014080020A402002058050020C4070020EF
:1017900000001440240800206807002000008C424C
:1017A0000000204210B5002409E04FF480714FF092
:1017B000904002F0E4F9642001F01EF90134072C96
:1017C000F3D900224FF480714FF0904002F0D2F92B
:1017D00000239FED5D7AF0EE476A0AE05B4A02EB78
:1017E000830292ED006A76EE866A37EE277A01333D
:1017F000DBB2574A02EB8302D2ED007AF5EE407A73
:10180000F1EE10FAEAD107EE903AF8EEE77AC6EE7A
:10181000A75A87EE275ADFED4C6AB0EE666A0023BE
:1018200012E04A4A02EB830292ED007A37EE657AC3
:10183000B0EEC77A36EE076A77EEC57AF0EEE77A51
:1018400076EEA76A0133DBB2414A02EB8302D2EDA6
:10185000007AF5EE407AF1EE10FAE2D107EE903A16
:10186000F8EEE77A86EE274AC6EEA74A0021084638
:101870000B4601E00133DBB2354A02EB8302D2EDC5
:10188000007AF5EE407AF1EE10FA40D02F4A02EBE2
:10189000830292ED007A35EE846A75EEC46AB4EE86
:1018A000C67AF1EE10FA94BF01220022B4EEE67A75
:1018B000F1EE10FA02F00102B8BF002242B1254A4F
:1018C000D2ED006A37EE267A82ED007A0130C0B29E
:1018D00075EE246A35EE647AF4EEE76AF1EE10FAFA
:1018E000ACBF01220022B4EEE77AF1EE10FA02F06A
:1018F000010288BF0022002ABCD0174A92ED007A6C
:1019000077EE877AC2ED007A0131C9B2B2E7114BA6
:1019100007EE900AF8EEE77AD3ED006A86EEA77A32
:1019200083ED007A0C4B07EE901AF8EEE77AD3EDD0
:10193000006A86EEA77A83ED007A084A136803F5F9
:10194000EA433033136010BD00000000240800207B
:1019500068070020AC05002064070020A4020020D6
:1019600008B54FF480714FF0904002F008F908BDBF
:1019700010B500240AE04FF480714FF0904002F05F
:10198000FEF80A2001F038F80134E4B2182CF2D93C
:1019900000224FF480714FF0904002F0EBF8024BC0
:1019A00001221A7210BD00BFA40200200000000036
:1019B000F8B52DED028B00222021B34802F0DAF8B1
:1019C000B24B188A07EE900AF8EE677A17EE900A83
:1019D000FEF762FD88A3D3E90023FEF7B5FD0022E0
:1019E000AB4BFEF7B1FDFFF75FF807EE100AF1EE23
:1019F000047A77EEC77AC7EE877A17EE900AFEF779
:101A00004BFD7FA3D3E90023FEF79EFDFFF74CF8C3
:101A1000FEF742FD7CA3D3E90023FEF7BFFEFFF7EC
:101A200043F808EE100AFEF737FD04460D46F1EEC6
:101A3000007AB4EEE78AF1EE10FA4CBF01270027D6
:101A40004FF0010672A3D3E90023FFF70DF808B9A0
:101A50004FF00006374230D14FF001066CA3D3E9B6
:101A6000002320462946FEF7EBFF08B94FF0000699
:101A70004FF0010768A3D3E9002320462946FEF76B
:101A8000E9FF08B94FF000073E4016F0FF0F3BD1C9
:101A900061A3D3E9002320462946FEF7C7FF0028AB
:101AA00040F09880F1EE007AB4EEE78AF1EE10FA99
:101AB00027DD784B00221A6023E09FED591B45EC8F
:101AC000104B03F0C9FA0022734B51EC100BFEF7D8
:101AD0003BFD06460F4654A3D3E900232046294682
:101AE000FEF732FD02460B4630463946FEF774FBE0
:101AF0004FA3D3E90023FEF771FBFEF7D5FF654B3B
:101B00001860BDEC028BF8BD9FED4B1B45EC104BF4
:101B100003F0A2FA4AA3D3E9002351EC100BFEF71D
:101B200013FD06460F469FED481B45EC104B03F096
:101B300093FA47A3D3E9002351EC100BFEF704FD01
:101B400002460B4630463946FEF748FB06460F462E
:101B50009FED411B45EC104B03F07EFA40A3D3E907
:101B6000002351EC100BFEF7EFFC02460B4630460B
:101B70003946FEF731FB06460F469FED291B45EC23
:101B8000104B03F069FA38A3D3E9002351EC100B92
:101B9000FEF7DAFC02460B4630463946FEF71EFBDE
:101BA00004460D46DFED3D7A68EE277A17EE900A7F
:101BB000FEF772FC02460B4620462946FEF70CFB58
:101BC0002BA3D3E90023FEF709FBFEF76DFF314B92
:101BD000186096E728A3D3E9002320462946FEF79C
:101BE000B3FC27A3D3E90023FEF7F8FAFEF75CFF66
:101BF000284B186085E700BF6666666666660A4021
:101C00005C8FC2F528A89F40AE47E17A14CE8F4082
:101C10009A9999999999F13F9A9999999999C93F5E
:101C20000000000000000040355EBA490CC255407B
:101C30009A99999999D16C400000000000001440D5
:101C40000000000000C9DFC00000000000001040DC
:101C500000000000A005F94000000000000008405E
:101C600000000000E015FD4000000000C0CFEE4085
:101C700033333333332FA64033333333B30ABAC04D
:101C80006666666666D5A44000040048A40200208B
:101C90000000303FD805002000C02440005480469A
:101CA00070B584B000F0A2FE334BDB69C01A4DF270
:101CB000F023984201D804B070BD01238DF80C3098
:101CC00000238DF80D300A23022290212B4802F0C8
:101CD00073FA00283ED004AC002304F8043D274DDD
:101CE0000A260096012322469021284602F0E8F8B1
:101CF0000096022322469021284602F09FF99DF883
:101D00000C0007EE900AF8EE677A17EE900AFEF7DD
:101D1000C3FB04460D469DF80D0007EE900AF8EE51
:101D2000677A17EE900AFEF7B7FB0FA3D3E90023FB
:101D3000FEF70AFC0EA3D3E90023FEF72FFD0246AF
:101D40000B4620462946FEF749FAFEF7ADFE0C4B3E
:101D50001860B0E70A230093022303AA90210748E2
:101D600002F0AEF8B7E700BFAC1C5A643BDFEF3FB0
:101D70000000000000E06F40A4020020BC0400202E
:101D8000DC05002010B5A4B04422002113A804F003
:101D900095FA00240E940F94109411941294342206
:101DA000214601A804F08AFA02F018FB164AD2F87C
:101DB000903023F01803C2F890304FF4007002F016
:101DC0001DFB14231393012315931A931B94602373
:101DD0001C931E9413A802F0FBFB0F230E930F9489
:101DE00010941194129421460EA802F065FF44F25B
:101DF000401301930694089401A803F009F803F036
:101E000021F924B010BD00BF0010024010B582B00F
:101E1000059C0194049C009400F084FB9DF818003C
:101E200000F036FB9DF81C0000F039FB9DF8200007
:101E300000F03CFB00F038FD02B010BD08B50248D0
:101E4000FEF7B0FF08BD00BF0000002008B5024843
:101E5000FEF7A8FF08BD00BFD000002030B587B056
:101E600000F0A8FDFFF78EFFFEF7BEFFFEF77CFF38
:101E7000FEF7B2FEFFF704F8FFF72EF81A4C012226
:101E80000221204601F076FE01221146204601F093
:101E900071FE01222021204601F06CFE00200490FA
:101EA0001F230393022202924FF400530193D7237E
:101EB00000934FF448731021FFF7A8FFFFF7BEFF10
:101EC0000546FFF7C3FF044600F090FD074BD861BD
:101ED00003220749074801F0D3FA2846FEF76DFFB1
:101EE0002046FEF76AFFF8E700040048A40200203D
:101EF000B807002010040020704701FB00F0704775
:101F00000368C3EBC13103EB2113036043F3CF300C
:101F100070470000F8B51A4B1E783746194A22F868
:101F20001600A6F10B0303F01F0332F913104FF450
:101F30008050FFF7E2FF0546002416E0331B03F054
:101F40001F03104A32F81310A7F11603234403F0BD
:101F50001F0332F81330194409B20B4B33F9140044
:101F6000FFF7CBFF05440134E4B20A2CE6D9013671
:101F700006F01F06024B1E7045F3CF30F8BD00BFC0
:101F8000C402002044090020C063000800000000D3
:101F90002DE9F04F87B004460F46AF4DAB686B603C
:101FA00000F024FDA860AD4EAB893380EB7BAB73B2
:101FB000A4B2214605F11000FFF7A2FFA84B18803C
:101FC000201A00B2A881B6F90050A842C0F21681CA
:101FD000A14B0122DA73A34B1C88A4F16F039BB2BF
:101FE000262B0DD89C4BB3F91430984201DD9A4B47
:101FF0009882994BB3F91630984201DA964BD88201
:10200000954BB3F914A0D88AAAEB000000B2962C25
:1020100040F246819E7BDB7B012E08BF002B0CBF6C
:1020200001260026FEF726FACDE9000186A3D3E9B2
:102030000023FEF789FA804689465046FEF71AFAD1
:1020400042464B46FEF7C8F8804689462846FEF7CA
:1020500011FA4FF0010A42464B46FEF7FBFC08B965
:102060004FF0000A5FFA8AF306B3FBB17A4A117E99
:10207000481E7D4B33F81030E31A527E012A14BFFC
:102080004FF0000C4FF0010C142BD8BF4FF0000C98
:10209000C82C94BF00260126BCF1000F00F0B280CE
:1020A000002E00F0AF806F4B6E221A806A4D95F8BB
:1020B0000E80EC7BB8F1010F08BF002C0CBF01268D
:1020C0000026B5F90C00FEF7D5F982468B460022B2
:1020D000664BDDE90001FEF737FACDE90201B5F9FB
:1020E0001400FEF7C7F9DDE90223FEF775F84FF09B
:1020F000010502460B4650465946FEF7A1FC08B9B9
:102100004FF00005EDB2544BB3F91600FEF7B2F9EB
:10211000CDE904014EA3D3E90023DDE90001FEF778
:1021200013FA02460B46DDE90401FEF757F84FF0BB
:10213000010902460B4650465946FEF78BFC08B98A
:102140004FF000095FFA89F9434B9A7E93F819A082
:10215000BAFA8AFA4FEA5A1A354009EA0505002AFE
:1021600018BF0025002D6BD0BAF1000F68D0DA7EC1
:102170003C4908883E4921F812000132DA760125EF
:102180009D765B68BB60012C14BF00240124B8F16C
:10219000000F18BF0024002C00F083802F4BB3F9F0
:1021A00000402046FEF766F980468946DDE90423B3
:1021B000DDE90201FEF712F802460B4640464946A9
:1021C000FEF73EFC00286CD0264B1888C82894BF28
:1021D00000230AF00103204A117F4E1E254A32F8DF
:1021E0001620821A142AD4BF00260126002B45D0BF
:1021F000002E43D01B4B6E221A8052E0164B002259
:10220000DA73E8E61C4A32F81020081C18BF0120D7
:10221000092BD8BFAA4203DA10B14B1E0E4A13761F
:102220000D4B1A7E104921F81240134921F8125023
:1022300001321A769D825A683A6001225A7635E751
:102240000025A0E7AFF30080333333333333D33F7C
:102250009A9999999999B93FC4020020740800206D
:102260007608002000020020E80900200000D03F8E
:102270004C0A002084090020DC080020042A10DD1C
:102280000C4B23F811000C4B23F811400B4B013180
:10229000197700229A76DC82596879605A7600E0D4
:1022A0000025074A138801331380284607B0BDE88C
:1022B000F08F00BF8409002078080020C4020020AD
:1022C0000002002070B52C4E2C4DAB89338084B2B7
:1022D000214605F11000FFF713FE294B1880201A44
:1022E00000B2FFF717FE0346A88126490A8801328B
:1022F0000A80B6F90020C143C1F3C03111EAD2719E
:1023000011D02946B5F914001E4D6880B1F9164068
:10231000AC800125CD8300250D848D82001B1428FF
:1023200027DC284600E00020002AD4BF002101213C
:10233000002BC8BF002129B110490024CC830125FE
:102340000D84CC820D49B1F91E109342D4BF0021F7
:1023500001F0010109B109498B820849B1F9201046
:102360009342ACBF002201F001020AB1034AD382BA
:1023700070BD0120D8E700BF74080020C40200200F
:10238000760800200002002070B586B006AA02F888
:10239000091D0546094C0A260096012301462046E0
:1023A00001F08EFD009601230DF11702294620460B
:1023B00001F044FE9DF8170006B070BD080500202E
:1023C00000B585B08DF80C108DF80D200A23009310
:1023D000022303AA0146034801F072FD05B05DF82F
:1023E00004FB00BF0805002070B505460C461646E4
:1023F0000146AE20FFF7C8FF00EA04023243294637
:10240000AE20FFF7DDFF70BD10B54022BF210920CF
:10241000FFF7EAFF00F0EAFA044600F0E7FA001BD3
:1024200063280AD80921AE20FFF7AEFF10F0400F55
:1024300003D0012000F0E0FAEFE710BD08B5024636
:102440001F210820FFF7D0FF08BD08B51022EF219B
:102450000820FFF7C9FF08BD08B50246F82109208A
:10246000FFF7C2FF08BD08B502469F210A20FFF70B
:10247000BBFF08BD08B50246E3210A20FFF7B4FF01
:1024800008BD08B50246FC210A20FFF7ADFF08BDD4
:1024900008B502460C21AE20FFF792FF08BD08B533
:1024A00002460D21AE20FFF78BFF08BD08B502469E
:1024B0000E21AE20FFF784FF08BD08B501380328C0
:1024C00008D8DFE800F0020810160A46F8211120AB
:1024D000FFF78AFF08BD0A0102F0F0028F211120E8
:1024E000FFF782FFF6E70A46F8211220FFF77CFF8C
:1024F000F0E70A0102F0F0028F211220FFF774FFCB
:10250000E8E708B500220421AE20FFF759FF0022BA
:102510000521AE20FFF754FF00220621AE20FFF771
:102520004FFF08BD2DE9F84306460D4614461F46E9
:10253000DDF82080DDF82490FFF766FF012D27D01D
:10254000022D29D0042D2BD0082D2DD0102D2FD0C9
:10255000202D31D04020FFF771FFFFF776FF032CCD
:102560002ED0022C30D00220FFF776FF5C4B1C707F
:10257000B9F5805F2CDBB9F5005F46DBB9F5804F1C
:1025800047DBB9F5804F48D00020FFF76CFF22E011
:102590000020FFF753FFE0E72020FFF74FFFDCE7C5
:1025A0004020FFF74BFFD8E76020FFF747FFD4E755
:1025B0008020FFF743FFD0E7A020FFF73FFFCCE7E5
:1025C0000720FFF749FFD1E70320FFF745FFCDE7DD
:1025D0000020FFF748FF632F23DDC72F35DDB7F558
:1025E000C87F36DBB7F5487F37DBB7F57A7F38DB56
:1025F000B7F5C86F39DBB7F5486F3ADBB7F5486F09
:102600003BD00020FFF736FF0EE02020FFF72BFF26
:10261000E1E74020FFF727FFDDE76020FFF723FF1A
:10262000D9E70020FFF726FFB8F1750F29DDB8F1D3
:10263000D60F3EDDB8F5CD7F3FDD40F29B139845C8
:102640003FD00020FFF71DFF1EE00420FFF712FF20
:10265000EAE70820FFF70EFFE6E70C20FFF70AFF86
:10266000E2E71020FFF706FFDEE71420FFF702FF86
:10267000DAE71820FFF7FEFED6E71C20FFF7FAFE88
:10268000D2E70020FFF7FDFE3046FFF701FF30469E
:10269000FFF705FF3046FFF709FF01210846FFF766
:1026A0000CFF012C11D8022C14D8FFF72AFFBDE82B
:1026B000F8830120FFF7E5FEE6E70220FFF7E1FEE1
:1026C000E2E70320FFF7DDFEDEE702210846FFF721
:1026D000F4FEE8E703210846FFF7EFFEE5E700BF59
:1026E0004009002008B50621AE20FFF74DFE00F09E
:1026F0001F0008BD08B50421AE20FFF745FE00F01D
:102700001F0008BDF0B585B0FFF7ECFF0446FFF7EA
:10271000F1FF844200F09480041B12D44A4B1B78D2
:1027200004FB03F303EB430504AA072302F8013D6E
:102730000A2300930123AE21444801F0C1FB00238A
:1027400007E02034EAE7424A1A44FF2182F82410C5
:102750000133B3F5907FF6DB42F210730093ABB216
:102760003C4AAE21394801F069FC1C2C03DCE7B27D
:102770000026334604E01C27FAE7034643E001360F
:10278000B7425EDD344DB5F88021013202F01F0200
:10279000A5F88021DFF8B8C00CEB030191F82410F4
:1027A00001F00300591C5CFA81F191F82410090230
:1027B00001EB0041981C5CFA80F090F82400014481
:1027C000D81CC0B245F822101F490D78012DD4D96C
:1027D000604490F8241001F00300191D5CFA81F1A7
:1027E00091F82410090201EB0041581D5CFA80F0B9
:1027F00090F8240001440633DBB202F12000DFF838
:1028000058C04CF82010022DB9D9114DE91891F893
:10281000241001F00300591C55FA81F191F824109D
:10282000090201EB0041981C55FA80F090F8240051
:1028300001440333DBB24032074840F822109EE7E0
:102840000024A0B205B0F0BD40090020080500201A
:10285000C4020020E8020020E005002038B505464B
:1028600000F0C4F8044600F0C1F8001BA84206D8E6
:10287000FFF748FF28B9012000F0BEF8F3E7002079
:1028800038BD0120FCE7000008B5FA20FFF7E6FF9D
:1028900030B1044AB2F88031203352F8230008BD29
:1028A0000020FCE7E005002008B50222FD210320FE
:1028B000FFF79AFD08BD000082B00A4B1A6E42F085
:1028C00001021A661A6E02F001020092009A9A6DD5
:1028D00042F080529A659B6D03F080530193019BF7
:1028E00002B07047001002407047FEE7FEE7FEE7C7
:1028F000FEE770477047704708B500F06BF808BDF9
:1029000008B5024801F00FF808BD00BF74040020AC
:1029100008B5024800F090F908BD00BF100400207F
:102920000F49D1F8883043F47003C1F888300D4B5B
:102930001A6842F001021A60002098601A6822F0BA
:10294000A85222F410221A604FF48052DA601A68FA
:1029500022F480221A6098614FF000638B60704708
:1029600000ED00E000100240104B1B680BB9012085
:10297000704710B504464FF47A70B0FBF3F30C4A7D
:102980001068B0FBF3F000F0E9FE68B90F2C01D934
:1029900001200AE0002221464FF0FF3000F09CFEAB
:1029A000024B5C60002000E0012010BD0C02002002
:1029B0000802002010B5032000F07CFE0020FFF785
:1029C000D3FF10B10124204610BD0446FFF774FF69
:1029D000F9E70000034A1368034909680B441360D0
:1029E000704700BFB00A00200C020020014B18689D
:1029F000704700BFB00A002038B50446FFF7F6FF65
:102A00000546B4F1FF3F02D0044B1B681C44FFF79E
:102A1000EDFF401BA042FAD338BD00BF0C020020DE
:102A200030B583B000230193002800F0EC80044609
:102A3000436D03B323689A6812F0005F05D09A686B
:102A400022F0204222F03F029A602268936813F03D
:102A5000805F1DD1936823F0104323F03F0343F0C0
:102A600080539360694B1B689B09694AA2FB03234F
:102A70009B09019309E0FEF71FF90023A36584F881
:102A80005030D7E7019B013B0193019B002BF9D10B
:102A900023689A6812F0805F40F08280626D42F095
:102AA00010026265A26D42F00102A26501209A68DF
:102AB00012F0040F76D00121626D12F0100F40F079
:102AC0009B80002940F09880626D22F4817242F070
:102AD000020262659B6813F0010F14D14D4B9B6895
:102AE00013F0010F60D001224B4B9B6813F0010FD4
:102AF0005CD00123134306D1636848498A6822F4F5
:102B00007C1213438B60627E636B43EA4233E2685C
:102B10001343A268134394F8202043EA0243012A96
:102B200046D0A26A22B102F47072E16A0A431343EA
:102B30002168CD683A4A2A401343CB6023689A68DB
:102B400012F0040F39D001219A6812F0080F36D024
:102B50000122B1B9AAB9217E94F83020520042EA8C
:102B60008131DA6822F4804222F002020A43DA60FC
:102B700094F83830012B24D02268136923F0010324
:102B800013612369012B2ED02268136B23F00F03EE
:102B90001363636D23F0030343F00103636530E0C7
:102BA000002084E7002187E700229DE70023A1E7BA
:102BB000626A013A43EA4243B3E70021C4E70022D4
:102BC000C7E721680B6923F4FF6323F00403E26B7A
:102BD000256C2A43656C2A43A56C2A43134343F0B2
:102BE00001030B61CDE721680B6B23F00F03E26952
:102BF000013A13430B63CCE7636D43F01003636545
:102C0000012003B030BD0120FBE700BF0802002017
:102C1000632D3E05000004500001045000030450E1
:102C200007C0F0FF7047704708B5806AFFF7FBFFE9
:102C300008BD704770470000F8B5044603681D687A
:102C40005E68A04B9F6807F01F0715F0020F10D0B9
:102C500016F0020F0DD0436D13F0100F03D1436D2A
:102C600043F400634365204600F092FC236802228F
:102C70001A6015F0040F02D016F0040F05D115F0FC
:102C8000080F4AD016F0080F47D0636D13F0100FED
:102C900003D1636D43F4007363652368DA6812F44B
:102CA000406F34D1884A934209D01A46934209D0E2
:102CB00047B1052F06D0092F04D0D26803E0A2F552
:102CC0008072F3E7DA6812F4005F20D11A6812F01C
:102CD000080F1CD09A6812F0040F10D15A6822F025
:102CE0000C025A60636D23F480736365636D13F4A3
:102CF000805F0CD1636D43F00103636507E0636D92
:102D000043F010036365A36D43F00103A365204600
:102D1000FFF788FF23680C221A6015F0200F02D0FD
:102D200016F0200F05D115F0400F5CD016F0400FC3
:102D300059D0636D13F0100F03D1636D43F400534A
:102D400063652368DA6C12F0C00F12D10121DA68D2
:102D500012F4406F0FD101205B4A93420DD01A4606
:102D600093420DD067B1062F0AD0072F08D0D26842
:102D700007E00021EBE70020EEE7A2F58072EFE725
:102D8000DA6831B912F0007F27D130B312F4005F56
:102D900023D1196811F0400F1FD012F4001F1CD16D
:102DA0009A6812F0080F10D15A6822F060025A6037
:102DB000636D23F480536365636D13F4807F0CD1DE
:102DC000636D43F00103636507E0636D43F0100337
:102DD0006365A36D43F00103A365204600F0D4FBB7
:102DE000236860221A6015F0800F02D016F0800F61
:102DF0002FD115F4807F02D016F4807F34D115F4E2
:102E0000007F02D016F4007F3AD115F0100F19D0D0
:102E100016F0100F16D0636B33B1002F3CD0294B46
:102E20009B6813F4604F0AD0636D43F4806363655D
:102E3000A36D43F00203A3652046FFF7FBFE236862
:102E400010221A6015F4806F02D016F4806F29D119
:102E5000F8BD636D43F4803363652046FFF7E9FEF8
:102E6000236880221A60C4E7636D43F4003363650E
:102E7000204600F08BFB23684FF480721A60BEE797
:102E8000636D43F480236365204600F080FB236874
:102E90004FF400721A60B8E72368DB6813F0010F83
:102EA000CDD0C1E7636D43F480436365A36D43F008
:102EB0000803A36523684FF480621A60204600F07F
:102EC00064FBC5E7000304500001045008B5836AA1
:102ED0005A6D12F0500F31D15A6D42F400725A659A
:102EE0001A68116811F0080F14D0D16811F4406FFE
:102EF00020D1D26812F4005F1CD15A6D22F4807286
:102F00005A655A6D12F4805F14D15A6D42F0010275
:102F10005A650FE0D26812F0020F0BD15A6D22F4FD
:102F200080725A655A6D12F4805F03D15A6D42F077
:102F300001025A651846FFF775FE08BD5A6D12F07A
:102F4000100F03D1DB6C5B6B9847F6E71846FFF771
:102F500071FEF2E708B5806A436D43F040034365B4
:102F6000836D43F004038365FFF764FE08BD000032
:102F7000F0B482B00022019290F85020012A00F0B3
:102F80002C820346012280F850200268926812F0D9
:102F9000040F0AD0426D42F0200242650120002257
:102FA00083F8502002B0F0BC70474A68052A09D85F
:102FB000023A032A00F29880DFE802F0028C8F9236
:102FC0000C224A601E684D680C6830362A0A92004E
:102FD00002F00C02B05805F01F051F27AF4020EA91
:102FE0000700C4F38464AC402043B0501A68906872
:102FF00010F0040F7BD00120946814F0080F78D0F3
:103000000124002833D1002C31D18C68B4F1004F59
:1030100071D00E681432700E800000F00400155854
:10302000C6F304560727B74025EA0705B4402C43EA
:1030300014501868426922F0004242614C691868D5
:10304000C268C2F3C102520004FA02F20D69042DF3
:1030500066D00E68603050F82570B34C3C4006F0E6
:10306000F8463243144344F0004440F825401868C1
:10307000826812F0010F16D10A68CD68D0F8B0400E
:10308000C2F3120624EA060405F01806A74DF5401F
:103090002A40C2F312022243C0F8B020C868A44AF2
:1030A000904200F099800A68A2490A4200F091819A
:1030B000A149896801F0E074A048824200F02A81A9
:1030C0009F48824200F05E819E48824200F06E81FD
:1030D000002064E712224A6074E718224A6071E710
:1030E0004FF480724A606DE706224A606AE700206A
:1030F00082E7002485E70C681432600E800000F03F
:1031000004001558C4F30454072606FA04F425EA0B
:10311000040414501868426942F0004242618DE78D
:10312000026E046EC4F384640A68C2F3120585BBA0
:10313000C2F38462944231D01C68626E606EC0F348
:1031400084600A68C2F312056DBBC2F384629042C8
:103150002ED01C68A26EA06EC0F384600A68C2F311
:10316000120555BBC2F3846290422BD01C68E26EFC
:10317000E06EC0F384600A68C2F312053DBBC2F37F
:10318000846290427FF473AFE26E22F00042E26606
:103190006DE792FAA2F2B2FA82F2CBE7026E22F067
:1031A00000420266C8E792FAA2F2B2FA82F2CEE7D1
:1031B000626E22F000426266CBE792FAA2F2B2FAA5
:1031C00082F2D1E7A26E22F00042A266CEE792FA26
:1031D000A2F2B2FA82F2D4E71D680A68C2F31206BC
:1031E00096BB900E013000F01F0009288CBF002014
:1031F0000120002852D09EBB940E0134A40604F096
:10320000F844B6BB900E013000F01F070120B84013
:103210000443C6BB920E013202F01F0202EB4202CF
:10322000120522438C681435500E800000F0040013
:103230002E58C2F304520727974026EA070604FADD
:1032400002F232432A502EE792FAA2F0B0FA80F04E
:10325000013000F01F0009288CBF00200120C8E7C2
:1032600092FAA2F4B4FA84F40134A40604F0F84407
:10327000C7E792FAA2F0B0FA80F0013000F01F0721
:103280000120B840C4E792FAA2F2B2FA82F2013207
:1032900002F01F0202EB42021205C2E7CEB9940E01
:1032A0000134A40604F0F844E6B9900E013000F0B1
:1032B0001F070120B8400443F6B9900E013000F01A
:1032C0001F0000EB40021E3A120542F0007222433A
:1032D000A8E792FAA2F4B4FA84F40134A40604F044
:1032E000F844E1E792FAA2F0B0FA80F0013000F081
:1032F0001F070120B840DEE792FAA2F0B0FA80F092
:10330000013000F01F0000EB40021E3A120542F0AF
:103310000072DCE711F4000F7FF4D2AE19680A4A9C
:10332000914213D000203AE600F0FF03FFFF0700B0
:1033300000007F400000088000030450000052C7D6
:10334000000084CB010000800000045044F400021F
:103350002348816821F0E0710A438260214A1268A3
:1033600092092149A1FB0212920902EB420291004B
:10337000019102E0019A013A0192019A002AF9D1E1
:1033800000200CE611F0807F7FF49EAE1968174A8A
:10339000914201D0002002E644F08072104881681A
:1033A00021F0E0710A4382600020F8E511F4800FFB
:1033B00011D119680D4A914201D00020EFE544F483
:1033C00080020748816821F0E0710A438260002092
:1033D000E5E50020E3E50020E1E50220E2E500BFAD
:1033E0000003045008020020632D3E050000045035
:1033F00038B503689A6812F0010F3DD199681F4AE9
:10340000114209D0436D43F010034365836D43F0CF
:1034100001038365012030E004469A6822F00042EF
:1034200022F03F0242F001029A60FFF7DFFA054600
:1034300004E0FFF7DBFA401B022811D823681A6862
:1034400012F0010F16D19A6812F0010FF1D19A68AB
:1034500022F0004222F03F0242F001029A60E8E7C7
:10346000636D43F010036365A36D43F00103A3652F
:10347000012002E0002000E0002038BD3F00008075
:10348000F8B53C4B9D6803689B6813F0040F6BD143
:1034900005F01F0590F85030012B68D0012380F80B
:1034A000503045B1052D06D0092D04D0002380F8F9
:1034B0005030012359E017460E460446FFF798FFA7
:1034C000034600284CD1636D23F4706323F001039D
:1034D00043F4807363652368274A93423AD01A46BF
:1034E000934200D01DB9636D23F480136365636D4F
:1034F00013F4805F31D0A36D23F00603A365E36C62
:103500001E4ADA62E36C1E4A1A63E36C1D4A5A6370
:1035100023681C221A60002384F850302268536804
:1035200043F0100353602268D36843F00103D36073
:1035300021683B4632464031E06C00F0B9F9034661
:1035400021688A6822F0004222F03F0242F0040221
:103550008A600AE0A2F58072C2E70023A365CEE785
:10356000002284F8502000E002231846F8BD022310
:10357000FBE700BF0003045000010450CD2E0008FB
:10358000292C0008552F0008704770477047704776
:103590007047000090F85020012A00F0838030B47A
:1035A0009AB00346012280F8502002683E488242C9
:1035B00038D0002001900198002837D0806810F0A2
:1035C000040F3CD00120926812F0040F5BD1002858
:1035D00059D10A68002A38D0344CA26822F46042DB
:1035E000486893F8305040EA45300243A2602E4AC2
:1035F000926812F0010F24D001222D48806810F04B
:10360000010F20D00120024348D1284CA26822F4A7
:10361000716222F00F020868896801430A43A260C0
:10362000002035E000F580700190C4E75A6D42F04B
:1036300020025A65002283F8502001202BE0002050
:10364000C1E70022D9E70020DDE71848816821F4AE
:10365000604181601449896811F0010F11D0012186
:103660001348806810F0010F00D001220A4317D1DF
:103670000E498A6822F4716222F00F028A600020EB
:1036800006E01146ECE75A6D42F020025A6501202F
:10369000002283F850201AB030BC70470020F7E7B2
:1036A0000020F5E70220704700000450000304509A
:1036B00000010450074AD36823F4E0631B041B0C89
:1036C000000200F4E060184340F0BF6040F40030B6
:1036D000D060704700ED00E030B4174BDB68C3F3F7
:1036E0000223C3F10704042C28BF04241D1D062D4A
:1036F00018D9033B4FF0FF3505FA04F421EA040121
:10370000994005FA03F322EA0303194300280BDB6F
:103710000901C9B200F1604000F5614080F8001372
:1037200030BC70470023E5E700F00F000901C9B283
:10373000024B1954F4E700BF00ED00E014ED00E087
:10374000002807DB00F01F02400901239340024AD2
:1037500042F82030704700BF00E100E00138B0F1CE
:10376000807F0AD2064B5860064AF02182F8231067
:103770000020986007221A6070470120704700BF40
:1037800010E000E000ED00E070B4446C04F01C05B3
:10379000066C0124AC407460046863608368102B7D
:1037A00005D0036899600368DA6070BC70470368ED
:1037B0009A600368D960F8E7002869D010B403461E
:1037C0000168344A914245D8334A0A443349A1FB3F
:1037D0000212120992004264314A0264022283F802
:1037E00025201868016821F4FF4121F070019A68D2
:1037F000DC6822431C6922435C6922439C692243A2
:10380000DC6922431C6A22430A4302609A68B2F5CB
:10381000804F15D0196C224A914226D0214A116856
:10382000586C00F01C040F20A04021EA0001116038
:10383000116858685C6C04F01C04A04001431160DE
:103840000020D863012283F8252083F824005DF846
:10385000044B7047144A0A441049A1FB0212120992
:1038600092004264114A0264B8E7A8321168586CA9
:1038700000F01C040F20A04021EA00011160116833
:1038800058685C6C04F01C04A04001431160D7E749
:103890000120704707040240F8FFFDBFCDCCCCCC1F
:1038A00000000240A8040240F8FBFDBF00040240F3
:1038B00038B590F82440012C33D0012480F82440FE
:1038C00090F82540E4B2012C04D0002380F8243085
:1038D000022038BD0446022084F825000020E06361
:1038E0002568286820F0010028602046FFF74CFF7B
:1038F000236B5BB12268136843F00E0313602268E8
:10390000136843F0010313600020E2E722681368A4
:1039100023F0040313602268136843F00A03136062
:10392000EDE70220D5E738B5036C1968046825680F
:10393000436C03F01C0304229A400A4215D015F090
:10394000040F12D0236813F0200F03D1236823F053
:1039500004032360436C03F01C02016C04239340B6
:103960004B60036B03B1984738BD02229A400A426C
:103970001CD015F0020F19D0236813F0200F06D1C8
:10398000236823F00A032360012380F82530436C69
:1039900003F01C02016C022393404B60002380F86B
:1039A0002430C36A002BDFD09847DDE7082202FAF3
:1039B00003F30B42D8D015F0080FD5D0236823F0BD
:1039C0000E032360436C03F01C03016C012202FA16
:1039D00003F34B60C26380F82520002380F8243075
:1039E000436B002BC0D09847BEE70000F0B583B012
:1039F000002336E0032400E00024B4403C430235B9
:103A0000584E46F82540584C2568D44304EA05062C
:103A10004F6817F4803F01D042EA0506524D2E60F0
:103A20006D6804EA05064F6817F4003F01D042EACA
:103A300005064D4D6E60AD6804EA05064F6817F443
:103A4000801F01D042EA0506474DAE60ED682C406C
:103A50004E6816F4001F01D042EA0504424AD460C1
:103A600001330A6832FA03F479D001249C402240E1
:103A7000F6D04D686E1E012E03D9112D01D0122DE6
:103A800012D186685F000325BD4026EA0506CD6891
:103A9000BD4035438560466826EA04064D68C5F397
:103AA00000149C4034434460C5685F000324BC405C
:103AB000E44325408E68BE402E43C6604D68022D0B
:103AC00001D0122D13D1DE08083650F826E003F09D
:103AD00007054FEA850C0F2505FA0CF52EEA050EB1
:103AE0000D6905FA0CF545EA0E0540F82650056803
:103AF0002C404D6805F00305BD402C4304604C6824
:103B000014F0805FACD0194C256E45F00105256698
:103B1000246E04F001040194019C9D08AE1C114C1C
:103B200054F8267003F00304A6000F24B44027EADB
:103B30000407B0F1904F3FF45FAF0D4CA0420AD0A4
:103B400004F58064A04208D004F58064A0423FF4EC
:103B500051AF072451E701244FE702244DE703B09A
:103B6000F0BD00BF00000140000401400010024011
:103B7000000400480AB98162704781617047436957
:103B80000B4201D1816170478162704703689A6975
:103B900012F0020F01D000229A6203689A6912F0B3
:103BA000010F03D19A6942F001029A61704770B423
:103BB000039E05686868740D04F4806444F07F74A3
:103BC00044F4583444F47F7444F0030420EA0400BD
:103BD000C1F3090141EA02411943314301436960DC
:103BE00070BC704770B504460D46164603689B6965
:103BF00013F0100F1CD023689A6912F0200F19D10E
:103C0000B5F1FF3FF7D0FEF7F1FE801BA84201D8C7
:103C1000002DF0D1636C43F020036364202384F80B
:103C20004130002384F8423084F84030012020E005
:103C300000201EE01022DA6123682025DD61204685
:103C4000FFF7A4FF2268536823F0FF7323F48B333C
:103C500023F4FF7323F001035360636C43F0040308
:103C6000636484F84150002384F8423084F8403083
:103C7000012070BD70B504460D46164623689B6949
:103C800013F0020F1DD1324629462046FFF7AAFF46
:103C9000C8B9B5F1FF3FF1D0FEF7A8FE801BA842DE
:103CA00001D8002DEAD1636C43F020036364202324
:103CB00084F84130002384F8423084F840300120F9
:103CC00000E0002070BD0120FCE7F8B505460F4676
:103CD00016461C462B689B6937EA03030CBF012379
:103CE0000023B34218D1B4F1FF3FF3D0FEF77EFEBC
:103CF000069BC01AA04201D8002CEBD16B6C43F09C
:103D000020036B64202385F84130002385F842307E
:103D100085F84030012000E00020F8BD70B5054670
:103D20000C4616462B689B6913F0200F1AD13246B9
:103D300021462846FFF756FFB0B9FEF757FE801B15
:103D4000A04201D8002CEDD16B6C43F020036B64D2
:103D5000202385F84130002385F8423085F8403033
:103D6000012070BD0020FCE70120FAE770B5044691
:103D70000D46164623689B6913F0040F3ED1324668
:103D800029462046FFF72EFF0146002838D1236838
:103D90009A6912F0200F13D1FEF728FE801BA8426B
:103DA00001D8002DE6D1636C43F020036364202327
:103DB00084F84130002384F840300121084670BD6A
:103DC0009A6912F0040F02D0228D002AF6D1202227
:103DD000DA6121684B6823F0FF7323F48B3323F4FB
:103DE000FF7323F001034B600023636484F84120D8
:103DF00084F8423084F840300121DFE70021DDE71C
:103E00000121DBE7002859D010B5044690F8413075
:103E1000002B43D0242384F841302268136823F018
:103E2000010313606368226823F0706313612268E2
:103E3000936823F400439360E368012B33D0A368B5
:103E4000226843F404439360E368022B31D0226874
:103E5000536843F0007343F4004353602268D3680F
:103E600023F40043D360236962691343A169226884
:103E700043EA0123D360E369216A22680B4313609C
:103E80002268136843F0010313600020606420235C
:103E900084F84130206384F8420010BD80F840303F
:103EA000FDF746F8B6E7A368226843F40043936041
:103EB000CAE723684FF400625A60C8E701207047E0
:103EC0002DE9F04383B090F84150EDB2202D40F041
:103ED000A48090F84040012C00F0A480984617463A
:103EE0000E4604464FF0010980F84090FEF77EFD33
:103EF0000546009019234A464FF400412046FFF73B
:103F0000E4FE002840F09080212384F84130102303
:103F100084F84230002363646762A4F82A806363F4
:103F2000638D9BB2FF2B0AD9FF222285424B00935F
:103F30004FF0807331462046FFF739FE18E0628D5E
:103F400092B222853C4B00934FF00073D2B23146BF
:103F50002046FFF72CFE0BE0628D92B222850023F3
:103F600000934FF00073D2B231462046FFF71FFE98
:103F7000638D9BB2002B33D02A460A992046FFF767
:103F800079FE002852D1626A236812789A62636AC5
:103F900001336362638D013B9BB26385238D013BDB
:103FA0009BB22385628D92B2002AE1D0002BDFD133
:103FB00000950A9B002280212046FFF786FE0028FC
:103FC00036D1638D9BB2FF2BC6D9FF2222850023F9
:103FD00000934FF0807331462046FFF7E8FDC7E7B6
:103FE0002A460A992046FFF799FE034610BB22682D
:103FF0002021D1612068426822F0FF7222F48B32C6
:1040000022F4FF7222F00102426084F84110002283
:1040100084F8422084F8402000E00223184603B0D0
:10402000BDE8F0830223F9E70123F7E70123F5E771
:104030000123F3E70123F1E7002000802DE9F0439D
:1040400083B090F84150EDB2202D40F0A48090F85C
:104050004040012C00F0A480984617460E460446C6
:104060004FF0010980F84090FEF7C0FC0546009033
:1040700019234A464FF400412046FFF726FE002848
:1040800040F09080222384F84130102384F842309D
:10409000002363646762A4F82A806363638D9BB224
:1040A000FF2B0AD9FF222285424B00934FF08073E9
:1040B00031462046FFF77BFD18E0628D92B22285E3
:1040C0003C4B00934FF00073D2B231462046FFF7CD
:1040D0006EFD0BE0628D92B22285002300934FF0BB
:1040E0000073D2B231462046FFF761FD638D9BB26B
:1040F000002B33D02A460A992046FFF737FE0028C6
:1041000052D123685A6A636A1A70636A0133636220
:10411000238D013B9BB22385628D013A92B2628569
:10412000628D92B2002AE1D0002BDFD100950A9B6C
:10413000002280212046FFF7C8FD002836D1638D7C
:104140009BB2FF2BC6D9FF222285002300934FF09C
:10415000807331462046FFF72AFDC7E72A460A99B1
:104160002046FFF7DBFD034610BB22682021D1610A
:104170002068426822F0FF7222F48B3222F4FF7230
:1041800022F00102426084F84110002284F84220AB
:1041900084F8402000E00223184603B0BDE8F08315
:1041A0000223F9E70123F7E70123F5E70123F3E70A
:1041B0000123F1E7002400802DE9F04385B00024BD
:1041C000039490F84140E4B2202C40F09E800468B3
:1041D000A46914F4004F40F09D8090F84040012CF9
:1041E00000F09A801E46904689460546012380F8D5
:1041F0004030242380F841300023436442E0C9F377
:10420000090343F0007343F4005342E02B689C69B8
:10421000C4F340149B69C3F30013B4B9ABB9B6F14E
:10422000FF3FF3D0FEF7E2FBC01BB04201D8002EE7
:10423000ECD1202385F841306B6C43F020036B6494
:10424000002385F84030012360E02B689B6913F060
:10425000100F2BD000973346002220212846FFF76D
:1042600034FD00285CD12B681022DA612B682022F3
:10427000DA61039B43452BD0039B01330393039BDC
:10428000434536D2EB68012BB9D0C9F3090343F497
:1042900020532A685360FEF7A9FB07462B689C69E8
:1042A000C4F340149B69C3F30013B6E70097334689
:1042B000002220212846FFF708FD034670BB29682D
:1042C0002022CA6185F84120002285F840201DE0A7
:1042D0002A68536843F480435360009733460022B2
:1042E00020212846FFF7F1FCE0B92B682022DA6193
:1042F000C2E7202385F841306B6C43F020036B64E8
:10430000002385F84030012300E00223184605B061
:10431000BDE8F0830223F9E70223F7E70123F5E77D
:104320000123F3E70123F1E790F84130DBB2202BC2
:1043300024D190F84030012B22D0012380F8403066
:10434000242380F841300268136823F001031360CE
:104350000268136823F480531360026813681943DA
:1043600011600268136843F001031360202380F892
:104370004130002380F840301846704702207047D3
:104380000220704790F84130DBB2202B22D190F808
:104390004030012B20D0012380F84030242380F8C6
:1043A00041300268136823F0010313600268136848
:1043B00023F4706343EA012111600268136843F03B
:1043C00001031360202380F84130002380F840303F
:1043D000184670470220704702207047024A13684F
:1043E00043F480731360704700700040024B1868FC
:1043F00000F4C060704700BF00700040B0F5007F5F
:104400000FD01F4B1B6803F4C063B3F5806F34D02B
:104410001B4A136823F4C06343F4806313600020D5
:104420007047174B1B6803F4C063B3F5007F22D0BD
:10443000134A136823F4C06343F400731360114BF1
:104440001A68322303FB02F30F4AA2FB03239B0CDF
:10445000013300E0013B0A4A526912F4806F01D037
:10446000002BF7D1064B5B6913F4806F01D100205C
:10447000704703207047002070470020704700BF3E
:10448000007000400802002083DE1B4330B583B07B
:104490000546204B9B6D13F0805F0BD0FFF7A6FF06
:1044A000B0F5007F17D0802D1FD82DD0702D2DD0C6
:1044B00000211BE0174CA36D43F08053A365A36D4F
:1044C00003F080530193019BFFF790FFA36D23F04E
:1044D0008053A365E4E7802D03D9A02D03D90221E1
:1044E00004E0002102E0012100E003210A4A1368F0
:1044F00023F007030B431360136803F007038B4299
:1045000006D0012003B030BD0221EFE70121EDE725
:104510000020F7E70010024000200240284A93687C
:10452000D26802F0030213F00C030AD00C2B06D061
:10453000042B1FD0082B20D00020024610E0012AB7
:10454000F6D11F4A126812F0080F0CD11C4AD2F89B
:104550009420C2F303221B4951F8222043B10020CA
:104560000C2B0DD07047164A1268C2F30312F2E703
:104570001046F5E714480022F2E714480022EFE75E
:104580000F4BDB6803F00303022B15D0032B15D070
:104590000B4BD868C0F302100130D968C1F3062173
:1045A00002FB01F2B2FBF0F2D868C0F341600130C7
:1045B0004000B2FBF0F0D5E7034AE9E7034AE7E73A
:1045C00000100240D86300080024F40000127A00B2
:1045D000002800F05583F0B583B00446974B9D68E2
:1045E00005F00C05DE6806F00306036813F0100FF3
:1045F0005BD0E5B10C2D18D0E369002B00F0BC8036
:104600008E4A136843F001031360FEF7EFF9074683
:104610008A4B1B6813F0020F40F09B80FEF7E6F90F
:10462000C01B0228F4D9032338E3012EE4D1834BC5
:104630001B6813F0020F03D0E369002B00F0238303
:10464000606A7E4B1B6813F0080F5CD07B4B1B68C5
:1046500003F0F00398425DD8784B1A6842F00802E4
:104660001A601A6822F0F002616A0A431A605A68F6
:1046700022F47F42216A42EA01225A60002D61D071
:10468000FFF74CFF6D4B9B68C3F303136C4AD35C7D
:1046900003F01F03D8406B4B18606B4B1868FEF794
:1046A00063F90346002840F0F982236813F0010FF4
:1046B00000F08180082D75D00C2D71D06368B3F5A2
:1046C000803F00F09880B3F5A02F00F09A805B4BFC
:1046D0001A6822F480321A601A6822F480221A6062
:1046E0006368002B00F09A80FEF780F90746534B71
:1046F0001B6813F4003F5ED1FEF778F9C01B6428F5
:10470000F5D90323CAE24D4BD3F894301B0903F0CB
:10471000F0039FE7FFF7BAFE002840F0B682474B50
:104720001A6842F008021A601A6822F0F002616A00
:104730000A431A605A6822F47F42216A42EA01223F
:104740005A609DE7606AFFF7A1FE002898D0012318
:10475000A4E23A4B1A6842F008021A601A6822F082
:10476000F002616A0A431A605A6822F47F42216AA1
:1047700042EA01225A6098E7304A136823F00103A5
:104780001360FEF733F907462C4B1B6813F0020F3A
:104790008BD0FEF72BF9C01B0228F5D903237DE24D
:1047A000032E8BD1254B1B6813F4003F03D06368A5
:1047B000002B00F06C82236813F0020F59D0042DF7
:1047C00046D00C2D42D0E368002B00F092801B4AAB
:1047D000136843F480731360FEF708F90646174B1D
:1047E0001B6813F4806F7BD1FEF700F9801B022851
:1047F000F5D9032352E2114A136843F4803313605E
:104800006EE703F18043A3F53C331A6842F480223B
:104810001A601A6842F480321A6061E7FEF7E6F81F
:104820000746064B1B6813F4003FC4D0FEF7DEF8C2
:10483000C01B6428F5D9032330E200BF00100240FA
:10484000086400080802002010020020022EBAD1DD
:10485000AF4B1B6813F4806F03D0E368002B00F0AC
:104860001882AB4A536823F0FE43216943EA01638F
:104870005360236813F0080F7DD06369002B63D069
:10488000A34BD3F89430A16903F01002914210D0E9
:1048900003F00302022A00F0FE8113F0010F3CD165
:1048A0009B4AD2F8943023F01003A1690B43C2F85D
:1048B0009430974AD2F8943043F00103C2F8943010
:1048C000FEF794F80646924BD3F8943013F0020F9B
:1048D00051D1FEF78BF8801B1128F4D90323DDE1B9
:1048E0008B4A536823F0FE43216943EA0163536016
:1048F000BFE7874A136823F480731360FEF776F8E6
:104900000646834B1B6813F4806FB2D0FEF76EF837
:10491000801B0228F5D90323C0E17D4AD2F89430E8
:1049200023F00103C2F89430FEF760F80646784B96
:10493000D3F8943013F0020FB2D0FEF757F8801B73
:104940001128F4D90323A9E1714AD2F8943023F055
:104950000103C2F89430FEF749F806466C4BD3F8D1
:10496000943013F0020F06D0FEF740F8801B112898
:10497000F4D9032392E1236813F0040F00F08D8033
:10498000634B9B6D13F0805F2ED1614B9A6D42F0AB
:1049900080529A659B6D03F080530193019B012621
:1049A0005C4B1B6813F4807F20D0A36813F0010FC9
:1049B00038D05749D1F8902022F0800203F08003CC
:1049C0001343C1F89030A36813F0040F22D0D1F83C
:1049D000902042F00402C1F89020D1F8902042F0DB
:1049E0000102C1F890202AE00026D9E7494A13685D
:1049F00043F480731360FDF7F9FF0746454B1B68CE
:104A000013F4807FD1D1FDF7F1FFC01B0228F5D947
:104A1000032343E13E4AD2F8903043F00103C2F849
:104A200090300CE03A4BD3F8902022F00102C3F80A
:104A30009020D3F8902022F00402C3F89020A368BD
:104A40008BB1FDF7D3FF0746314BD3F8903013F00D
:104A5000020F21D1FDF7CAFFC01B41F288339842F3
:104A6000F2D903231AE1FDF7C1FF0746284BD3F81B
:104A7000903013F0020F08D0FDF7B8FFC01B41F2D1
:104A800088339842F2D9032308E1214AD2F89030C2
:104A900023F08003C2F89030E6B9236813F0200FAA
:104AA0003AD0A36AE3B11A4AD2F8983043F001032E
:104AB000C2F89830FDF79AFF0646154BD3F89830A8
:104AC00013F0020F28D1FDF791FF801B0228F4D9C3
:104AD0000323E3E00E4A936D23F080539365DCE7F4
:104AE0000B4AD2F8983023F00103C2F89830FDF752
:104AF0007DFF0646064BD3F8983013F0020F0BD01B
:104B0000FDF774FF801B0228F4D90323C6E000BF21
:104B10000010024000700040E36A002B00F0BD80EE
:104B2000022B1FD00C2D00F0C080614B1A6822F0C0
:104B300080721A60DA6822F00302DA60DA6822F022
:104B40008872DA60FDF752FF0446594B1B6813F078
:104B5000007F00F09380FDF749FF001B0228F4D985
:104B600003239BE0524BDB6803F00301226B91426D
:104B700016D00C2D00F095804D4A136823F08073F9
:104B80001360FDF733FF0546494B1B6813F0007FA8
:104B90002AD0FDF72BFF401B0228F5D903237DE027
:104BA00003F07002616B0139B2EB011FE1D103F434
:104BB000FE42A16BB2EB012FDBD103F4C001E26B2B
:104BC0005208013AB1EB425FD3D103F0C063226CCB
:104BD0005208013AB3EB426FCBD1354B1B6813F04F
:104BE000007F32D0002359E0314AD368314919405F
:104BF000236B606B013843EA0013A06B43EA002388
:104C0000E06B4008013843EA4053206C400801380B
:104C100043EA40630B43D360136843F0807313602F
:104C2000D36843F08073D360FDF7E0FE0446204B69
:104C30001B6813F0007F06D1FDF7D8FE001B022889
:104C4000F5D903232AE0002328E0194B1A6842F023
:104C500080721A60DA6842F08072DA60FDF7C6FE90
:104C6000044604E0FDF7C2FE001B02281BD8104BCF
:104C70001B6813F0007FF5D000230FE000230DE048
:104C8000012318467047012308E0012306E00123B1
:104C900004E0012302E0012300E00023184603B0F2
:104CA000F0BD0123FAE70323F8E70123F6E700BF8D
:104CB000001002408C809FF9002800F09B8070B5A6
:104CC00004464E4B1B6803F007038B420CD24B4A41
:104CD000136823F007030B431360136803F0070303
:104CE0008B4201D0012070BD0D46236813F0010FE7
:104CF00039D06368032B09D0022B26D063BB404A0E
:104D0000126812F0020F06D10120ECE73C4A12684B
:104D100012F0007F70D03A498A6822F003021343F0
:104D20008B60FDF763FE0646354B9B6803F00C0372
:104D30006268B3EB820F16D0FDF758FE801B41F27C
:104D400088339842F0D90320CDE72D4A126812F437
:104D5000003FE0D10120C6E7294A126812F4806FB3
:104D6000D9D10120BFE7236813F0020F06D0244AEF
:104D7000936823F0F003A1680B4393601F4B1B68FB
:104D800003F00703AB420CD91C4A136823F0070356
:104D90002B431360136803F00703AB4201D00120DB
:104DA000A1E7236813F0040F06D0154A936823F493
:104DB000E063E1680B439360236813F0080F07D0AA
:104DC0000F4A936823F46053216943EAC103936057
:104DD000FFF7A4FB0A4B9B68C3F30313094AD35C98
:104DE00003F01F03D840084B1860084B1868FDF704
:104DF000BBFD78E701207047012074E700200240E6
:104E00000010024008640008080200201002002080
:104E1000F0B583B00446036813F4003F69D0874BB4
:104E20009B6D13F0805F1ED1844B9A6D42F08052CF
:104E30009A659B6D03F080530193019B0126804A84
:104E4000136843F480731360FDF7D0FD05467C4B77
:104E50001B6813F4807F08D1FDF7C8FD401B0228B2
:104E6000F5D9032502E00026E9E7002545BB734B91
:104E7000D3F8903013F4407315D0226B9A4212D0BD
:104E80006E4AD2F8903023F44073D2F8901041F477
:104E90008031C2F89010D2F8901021F48031C2F81D
:104EA0009010C2F8903013F0010F10D145B9634A49
:104EB000D2F8903023F44073216B0B43C2F890304A
:104EC000C6B15E4A936D23F08053936512E0FDF7FF
:104ED0008DFD0746594BD3F8903013F0020FE5D102
:104EE000FDF784FDC01B41F288339842F2D90325B7
:104EF000DCE70025236813F0010F08D04F4AD2F8F1
:104F0000883023F0030361680B43C2F888302368BC
:104F100013F0020F08D0494AD2F8883023F00C036E
:104F2000A1680B43C2F88830236813F0040F08D03F
:104F3000424AD2F8883023F03003E1680B43C2F8CC
:104F40008830236813F0200F08D03C4AD2F888300C
:104F500023F4406321690B43C2F88830236813F4BB
:104F6000007F08D0354AD2F8883023F44023216AE4
:104F70000B43C2F88830236813F4806F08D02F4A9F
:104F8000D2F8883023F44013616A0B43C2F88830AA
:104F9000236813F0400F08D0284AD2F8883023F451
:104FA000405361690B43C2F88830236813F0800FC7
:104FB00008D0224AD2F8883023F44043A1690B4339
:104FC000C2F88830236813F4807F08D01B4AD2F8D7
:104FD000883023F44033E1690B43C2F888302368FA
:104FE00013F4005F0CD0154AD2F8883023F04063E8
:104FF000A16A0B43C2F88830A36AB3F1006F13D0E3
:10500000236813F4802F0CD00C4AD2F8883023F098
:105010004063E16A0B43C2F88830E36AB3F1006F82
:1050200007D0284603B0F0BDD36843F48013D360A3
:10503000E6E7D36843F48013D360F2E70010024040
:1050400000700040024A136843F004031360704785
:1050500000100240000000002DE9F04F2DED028B02
:10506000DFF824A38BB057EC106B55EC114B00F01C
:105070008FF99AF90080B0EE408AF0EE608AB8F1BC
:10508000FF3F33D022462B4620462946FBF7F6FC4D
:10509000834658BB32463B4630463946FBF7EEFC6A
:1050A0008146002866D13046394600220023FBF7AE
:1050B000B3FC20B30022002320462946FBF7ACFCBA
:1050C000834600287DD09FEDA67B0122AA4BCDF818
:1050D00020900092CDE90267CDE904458DED067B75
:1050E0000193B8F1000F5ED09FED9F8BB0EE480AA0
:1050F000F0EE680A0BB0BDEC028BBDE8F08FB0EEAD
:10510000480AF0EE680A00F073FF8046002800F0BD
:1051100082804FF000084FF0000951EC180B424616
:105120004B46FBF779FC0028E0D047EC106B00F011
:105130005FFF0028DAD045EC104B00F059FF002843
:10514000D4D09AF900308C4A019204210022022B1B
:10515000CDE90267CDE90445CDE9068900910892C1
:1051600003D0684600F04CFF10BB01F075F8222315
:1051700003601DE00022002320462946FBF74CFC7B
:105180000028B3D09FED788B01227B4BCDF820B067
:10519000B8F1020F0092CDE90267CDE904458DED2B
:1051A000068B0193A2D0684600F02AFF002878D031
:1051B000089B1BB101F050F8089B03609DED068B26
:1051C00094E745EC104B00F013FF00288ED000222E
:1051D000002320462946FBF729FC002886D0664A92
:1051E0009AF90030CDF820B00121CDE90267CDE970
:1051F0000445CDE90012002B58D060490020022B55
:10520000CDE9060156D101F027F821230360089B60
:10521000002BD3D0CEE747EC106B00F0E9FE00285E
:105220003FF477AF45EC104B00F0E2FE00283FF46E
:1052300070AF53EC182B18EE100A1946FBF71EFC42
:105240009AF9009000286FD10323DFF82CC1089051
:105250002946204600930022494BCDF804C0CDE9F1
:105260000445CDE90267FBF76FF904460D46B9F135
:10527000000F25D1DFF814914FF060480022002381
:1052800030463946CDE90689FBF7D0FB38BB684686
:1052900000F0B6FE0028BAD100F0DEFF2223036042
:1052A000B5E700F0D9FF2123036081E79FED2C7B58
:1052B0008DED067B684600F0A3FE0028A7D1A2E78B
:1052C0009FED2B7B00220023304639468DED067B77
:1052D000FBF7ACFBB0B9B9F1020FDDD0D7E745EC75
:1052E000104B00F099FE22462B4651EC100BFBF7B9
:1052F00093FBB0B9234B9AF900904FF06042CDE98F
:105300000623E8E745EC104B00F086FE22462B46CC
:1053100051EC100BFBF780FB18B9184B0022CDE9BC
:1053200006239AF90090D6E70122134BCDF820808E
:105330000092CDE90267CDE904450193B9F1000F70
:10534000B4D00022002310461946FBF727FAB9F122
:10535000020FCDE906013FF456AFABE7AFF3008093
:105360000000000000000000000000000000F03F0E
:10537000000000000000F07F206400080000F0FF43
:105380000000E03FFFFFEFC714020020FFFFEF47E0
:105390002DE9F04F51EC110B21F0004555EA0003C7
:1053A00093B010D059EC108B6D4B29F000449C4207
:1053B0004E4610EE10AA0DDD04F1404404F58014B1
:1053C00054EA0A0356D16749002041EC100B13B090
:1053D000BDE8F08F0F4611EE10CA48D09D42EBDCBD
:1053E0005F4B9D425FD0002ECDE900015FDB4FF0A7
:1053F000000BBCF1000F0ED1594B9D4243D0594BCD
:105400009D4200F08C80B7F1804F00F09E80564B9B
:105410009F4200F0B88349EC108B00F0DFFD51ECA7
:10542000100BBAF1000F06D1002C5AD04D4B26F0CC
:1054300040429A4255D0F60F06F1FF3A5BEA0A0362
:1054400073D04A4B9D4240F3998003F104739D420F
:1054500040F33884464B9C4272DD002F72DD3EA340
:10546000D3E9002310461946FBF76EF8ADE7B8F113
:10547000000F05D03F4813B0BDE8F04F00F0C4BDA9
:10548000A542F7DCACE704F1404303F5801353EA8F
:105490000A0398D0364B9C4240F37F83002F51DBA8
:1054A000DDE9000191E7BCF1000F9CD084E7324BAD
:1054B0009D4231DCA3F154739D4298DD2B15A3F27C
:1054C000FF33142B40F3A183C3F134032CFA03F20E
:1054D00002FA03F363458AD102F00102C2F1020B22
:1054E00087E7002F05DA02460B4600201D49FBF72F
:1054F00055F9002EBFF669AF04F1404404F580145D
:1055000054EA0B0300F03A84BBF1010F7FF45DAF66
:1055100001F10043194658E74FF0020B69E7002FED
:10552000C0F24483404649464FE742464B46104648
:105530001946FAF751FE02460B46FBF72FF944E7EE
:10554000002F8CDB002000213FE742464B464046BF
:105550004946FAF7F9FF38E79C7500883CE4377E46
:105560000000F07F0000F03F0000E03F0000E0415D
:10557000FFFFEF3F24640008FFFF3F43B4F5801FA7
:1055800080F260830022D04BFAF7DEFF6FF0340622
:105590000C462315CD4AC4F31304A3F2FF3344F0A1
:1055A0007F559E1994420D9645F4401540F33D8376
:1055B000C74B9C4240F301849FEDAD7B8DED087B92
:1055C0008DED107B9FEDAC7B8DED067B01360D964E
:1055D000A5F580154FF00008DDE9062329460646AB
:1055E000FAF7FAFDDDE90623CDE90A01304629463E
:1055F000FAF7F4FD02460B460020B649FBF7CEF859
:1056000003460C46CDE90E3402460B46DDE90A019D
:10561000FAF79AFF6B1043F0005303F500230A4694
:105620002F46014603EB08050023CDE90212029341
:10563000DDE902890024CDE904122B4622464046CA
:105640004946FAF781FF02460B46DDE90A01FAF7FF
:10565000C3FDDDE90623CDE90A0120462946FAF714
:10566000BBFD02460B4630463946FAF7B5FD4246C9
:105670004B46FAF769FF02460B46DDE90A01FAF7E5
:10568000ABFDDDE90E23FAF75FFFDDE90445CDE967
:10569000060122462B4620462946FAF755FF78A3F5
:1056A000D3E9002304460D46FAF74EFF76A3D3E96B
:1056B0000023FAF793FD22462B46FAF745FF74A321
:1056C000D3E90023FAF78AFD22462B46FAF73CFF7E
:1056D00071A3D3E90023FAF781FD22462B46FAF79E
:1056E00033FF6FA3D3E90023FAF778FD22462B4658
:1056F000FAF72AFF6CA3D3E90023FAF76FFD2246DD
:1057000006460F462B4620462946FAF71DFF02465D
:105710000B4630463946FAF717FF424604460D4617
:105720004B46DDE90401FAF759FDDDE90623FAF7F6
:105730000BFF22462B46FAF751FD424606460F461E
:105740004B4640464946FAF7FFFE0022624BCDE940
:105750000A01FAF743FD32463B46FAF73FFD02984D
:105760000D46044622462B4640464946FAF7ECFED3
:10577000002280468946584B20462946FAF72CFDE0
:10578000DDE90A23FAF728FD02460B463046394682
:10579000FAF722FDDDE90423FAF7D6FE2246064693
:1057A0000F462B46DDE90601FAF7CEFE02460B4610
:1057B00030463946FAF712FD06460F4602460B46BA
:1057C00040464946FAF70AFD029839A3D3E9002377
:1057D00004460D46FAF7B8FE4246CDE904014B46B1
:1057E00020462946FAF7F8FC02460B463046394671
:1057F000FAF7F2FC30A3D3E90023FAF7A5FE30A3B1
:10580000D3E9002306460F4620462946FAF79CFEB8
:1058100002460B4630463946FAF7E0FCDDE9102334
:10582000FAF7DCFC06460D980F46FAF723FE3246DF
:10583000804689463B46DDE90401FAF7CFFCDDE905
:105840000823FAF7CBFC42464B46FAF7C7FC02980E
:1058500042464B4604460D46FAF7BEFCDDE90823F6
:10586000FAF7BAFCDDE9042338E000BFAFF30080AB
:105870000000000000000000000000000000F03FF9
:10588000EF4E454A287ECA3F65DBC9934A86CD3F25
:1058900001411DA96074D13F4D268F515555D53F0B
:1058A000FFAB6FDBB66DDB3F033333333333E33FA3
:1058B000000000E009C7EE3FFD033ADC09C7EE3FF8
:1058C000F5015B14E02F3EBE000040438E980300BC
:1058D00079B60B000000F03F00000840FAF77CFCAE
:1058E0000B46024639463046FAF776FC0BF1FF3399
:1058F00053EA0A03CDE9040100F05F819FEDD27BFA
:105900008DED027BDDE900AB002356465F46CDE915
:1059100000670093DDE90067504632463B46594632
:10592000FAF75AFC22462B46FAF70EFE52468046FC
:1059300089465B46DDE90401FAF706FE02460B469E
:1059400040464946FAF74AFC3246804689463B467D
:1059500020462946CDE90489FAF7F6FD0B460246B2
:1059600006460F4640464946FAF738FCD04B994266
:1059700004460D468A4640F3258101F13F4303F575
:10598000E003034340F0FE81B1A3D3E90023DDE946
:105990000401FAF723FC3246804689463B462046FE
:1059A0002946FAF719FC02460B4640464946FBF7E2
:1059B0005BF8002840F0E681A8464FEA2853A3F29E
:1059C000FE324FF4801313415344C3F30A52B94DCE
:1059D000A2F2FF321541C3F3130423EA05010020AC
:1059E000C2F1140B44F48014BAF1000F02460B46C6
:1059F00044FA0BFB30463946B8BFCBF1000BFAF73F
:105A0000EBFB06460F463246DDE904013B46FAF75A
:105A1000E5FB4FEA0B5A0D4600248FA3D3E9002380
:105A200020462946FAF790FD3246804689463B4695
:105A300020462946FAF7D0FB02460B46DDE9040171
:105A4000FAF7CAFB86A3D3E90023FAF77DFD86A304
:105A5000D3E9002306460F4620462946FAF774FD8F
:105A600002460B4630463946FAF7B8FB06460F4663
:105A700002460B4640464946FAF7B0FB42464B46C3
:105A800004460D46FAF7A8FB02460B463046394657
:105A9000FAF7A2FB2246804689462B462046294635
:105AA000FAF752FD72A3D3E9002306460F46FAF730
:105AB0004BFD71A3D3E90023FAF78EFB32463B4638
:105AC000FAF742FD6EA3D3E90023FAF787FB3246CB
:105AD0003B46FAF739FD6CA3D3E90023FAF77CFBC8
